:020000040800F2
:1000000068060020D5000008FB000008FD0000087D
:1000100000000000000000000000000000000000E0
:10002000000000000000000000000000FF000008C9
:10003000000000000000000001010008E1280008A5
:100040000501000805010008050100080501000878
:1000500005010008D10A000805010008DB0A0008B4
:100060000000000005010008050100080501000866
:100070000501000805010008000000000501000856
:100080000000000000000000000000000000000070
:100090000501000800000000000000000501000844
:1000A0000000000005010008000000000000000042
:1000B0000501000801240008000000000000000005
:1000C0000348854600F058FA0048004739330008D5
:1000D000680600200C4880F308880C480168090E67
:1000E0000B4A914205D10B480B4901600B480C4962
:1000F00001600C4880470C480047FEE7FEE7FEE73A
:10010000FEE7FEE7FEE700006806002004000000AE
:100110001F000000341002400100000000000140F8
:1001200000000000BD290008C100000830B50B46E2
:10013000014600202022012409E00D46D5409D42C1
:1001400005D31D469540491B254695404019154647
:10015000521E002DF1DC30BDF0B51FB40646002064
:1001600082B005464024019100901BE0019922468F
:100170000F46304600F03EF9049A059B801A9941DB
:1001800010D310461946224600F024F9361A8F4142
:100190000197224601200021009F00F01BF938182A
:1001A0004D4100902046641E0028DFDC019B009832
:1001B0002946324607B0F0BD03460B439B0703D0E8
:1001C00009E008C9121F08C0042AFAD203E00B781C
:1001D0000370401C491C521EF9D27047D2B201E094
:1001E0000270401C491EFBD270470022F6E710B592
:1001F00013460A4604461946FFF7F0FF204610BD95
:10020000421E5378521C002BFBD10B781370491CF3
:10021000521C002BF9D1704730B505462A460B46D3
:1002200010781C78521C5B1C002801D0A042F7D02B
:10023000002C03D0002802D06D1CEFE7284630BD0B
:10024000421C0178401C0029FBD1801A7047000035
:10025000F0B50C465C4085B0E40FE40703944C0015
:100260000026640859009446490802460296224333
:1002700021D062460A431ED06200570D4A000E0389
:100280002303550D012402462C492405781B1B0B22
:10029000360B401823432643614600901C46501AF3
:1002A000B44103D30098401C009002E092180098DB
:1002B0005B41002803DA0020014605B0F0BD0020B4
:1002C000012109050746864611E064461D46141BB8
:1002D000B54106D36546521BB341744607430C43F0
:1002E000A646CD0740084908284392185B410546B9
:1002F0000D43EAD11046184313D0604619465040CA
:100300007140084306D06046101AB34106D201225C
:10031000002306E000220123DB0702E00122D24392
:100320005310009874460105381C6141029C039DDE
:100330000019694100F06FF8BFE70000FD030000FD
:100340000EB5C217C10F5040CA0740180021054B17
:100350000293019200910A460B4600F069F803B03F
:1003600000BD0000330400000EB5054902910021D4
:1003700000910A460B46019100F05AF803B000BD07
:100380003304000010B5002904DB0124E4074042D7
:100390008C412146002B04DB1C460123DB07524223
:1003A000A3418B4200D1824210BD000010B500294C
:1003B00004DB0124E40740428C412146002B04DB8E
:1003C0001C460123DB075242A341994200D19042CF
:1003D00010BD000010B5202A04DB0146203A9140F0
:1003E000002010BD914020239C1A0346E34019438E
:1003F000904010BD10B5202A04DB0846203AD040BA
:10040000002110BD0B46D340D0402024A21A9140B9
:100410000843194610BD10B5002B08DA0024401C13
:10042000614192185B411A4301D14008400010BD60
:10043000F0B51FB482B005460C0003D0084602F0A8
:10044000A5FD02E002F0A2FD203002460090214608
:100450002846FFF7BFFF049B059A04460F46184342
:100460001143084314D0184610431BD00098402174
:100470000A1A18460599FFF7BDFF05460E46009A71
:1004800005990498FFF7A6FF084305D0012004E072
:100490002046394607B0F0BD0020C11705430E4382
:1004A0002C43374300990E986305401A7905E40AF6
:1004B00000220C43FD0A0A3002D500200146E9E77C
:1004C0000105101969410C9C0D9D00196941FFF748
:1004D000A2FFDFE7FEB500231A461B1A8A4103DBA1
:1004E0000020014603B0F0BD4A000D0301212D0B91
:1004F0000905520D0D43D10702D100186D41521E5E
:100500005110FF31FF310131002704463E46384685
:10051000009701910246012100200905FFF76AFFBB
:10052000C3197141F818324684468E464A416146E5
:100530002846611A904104D36046241A95417646B4
:100540001F46241900986D41401C00903428E1DDBD
:10055000F91930467041091BA84103D20022D24349
:10056000134601E00022134601980105381C714131
:10057000FFF751FFB6E70000064C0125064E05E0E7
:10058000E36807CC2B430C3C98471034B442F7D3B4
:10059000FFF79AFD243A0008443A000838B50446AB
:1005A000084807490068FFF7C1FD6043009002E07A
:1005B0000098401E009000980028F9D138BD000036
:1005C00040420F0010000020F8B504462068816802
:1005D0008907890F012902D10168C9072AD18168D9
:1005E000154A102611400125002907D0A06D30437F
:1005F000A065E06D2843E0650120F8BD81682943CE
:1006000081600120FFF7CAFF00F0D6FC07460CE02E
:1006100000F0D2FCC01B0A2807D9A06D3043A065AA
:10062000E06D2843E0650120F8BD20680068C04304
:10063000C007EDD10020F8BD170000803EB504468C
:100640000E4D00220221284600F0B0FC0B20694626
:1006500008724C720020887209480090032301AA96
:1006600002A9084801F09AFB69468C79012202210F
:10067000284600F09BFC20463EBD000000040050D0
:1006800088130000C0000020FEB504460D460C4E45
:1006900000220221304600F089FC0A2069460872D7
:1006A0004C728D7207480090032301AA02A90648E4
:1006B00001F074FB01220221304600F077FCFEBD00
:1006C0000004005088130000C000002070B50546EB
:1006D0002846FFF7B3FF04466D1CE8B2FFF7AEFFF4
:1006E0000007000F0102081A001970BD10B534216F
:1006F0002020FFF7C9FF01212120FFF7C5FF0C21B2
:100700002220FFF7C1FF66212320FFF7BDFF002154
:100710002420FFF7B9FF19212520FFF7B5FF00219D
:100720002620FFF7B1FF3F212720FFF7ADFF002173
:100730002820FFF7A9FF80212920FFF7A5FF20210E
:100740002A20FFF7A1FF10212B20FFF79DFF022198
:100750002D20FFF799FF10212C20FFF795FF10BDEA
:1007600010B500F059F80446142C03D91BA002F070
:10077000FDFB1BE01E480178012904D01D480078CC
:10078000012803D012E0002101700FE01AA002F04E
:10079000EDFBE121042289011B4801F0BDF91B4852
:1007A000016804221143016000F0B0FC7D20C0000C
:1007B00002F0A5FD012205205102000700F0F6FB22
:1007C000134802F09CFD00F0AFF802F013FE11494F
:1007D000E0B2098802F078FE10BD00007468696517
:1007E000662064657461637465642E0A000000000D
:1007F0000C0000200D000020676F20746F207374C0
:10080000616E6462792E0A009C0000200070004036
:10081000B80B00000A000020F8B50E20FFF756FFC5
:1008200004461020FFF752FF05461220FFF74EFF47
:1008300006460121C90219488C4201D9021B94B213
:100840008D4201D9421B95B20121C9028E4202D9C3
:10085000801B87B200E0374664436D433846611918
:1008600078430818FFF76CFD02F0EAFE04460D46D7
:100870003846FFF779FD22462B46FFF7E9FC00F0EA
:1008800015F804460120C002864201D9B420041B99
:10089000214603A002F06AFBA0B2F8BDFF0F0000E2
:1008A000616E676C653A25642E0A0000F0B5FFB0F2
:1008B000B8B004460D465B22D2000F496846FFF7E8
:1008C0007BFC00266F46F00038180CC820462946ED
:1008D000FFF758FD08D8701CC00038180CC8204617
:1008E0002946FFF763FD02D3761C5A2EEBD37FB067
:1008F000304638B0F0BD0000B036000810B50146F3
:100900000020064A1278002A06D0064B044A1B78BB
:10091000D0541046FFF780FC10BD000005000020F9
:100920001C00002004000020F8B5324C052525707D
:1009300006E0002801D0401E2070C82002F0DFFC35
:10094000C8222DA12DA000F079F8002802D020782F
:100950000028EED12570FF262D36324628A12AA088
:1009600000F06CF87D27FF000AE029A0FFF7C6FF22
:1009700000280DD12078401E2070384602F0BFFCC0
:100980002078002804D022A0FFF7B8FF0028ECD080
:10099000324621A123A000F051F8002807D03246AA
:1009A0001DA123A000F04AF801206070F8BD607816
:1009B0000028FBD0002060702570324610A112A0E4
:1009C00000F03CF87D252D010AE011A0FFF796FF0D
:1009D0000028EBD12078401E2070284602F08FFCC2
:1009E00020780028E2D00AA0FFF788FF0028ECD08A
:1009F000F8BD00000E0000204F4B000041540000E5
:100A00005245424F4F54000041542B4E5242000079
:100A10004E65756C000000002B4E42414E443A3545
:100A20000000000041542B4E42414E443F00000064
:100A300041542B4E42414E443D350000F7B582B043
:100A4000144600251C48002606701C4806701CA091
:100A5000006801900298FFF7F3FBC7B280211948A4
:100A6000FFF7C3FB184B3A461848029901F05BFCAC
:100A7000154B022201A9154801F055FC03980028E6
:100A800016D0002C14D00C4F0BE0322002F037FCB3
:100A90003878002805D00398FFF730FF002804D1EC
:100AA0003E70641E2404240CEFD1002C00D10125DB
:100AB000284605B0F0BD000005000020040000201D
:100AC0000D0A00001C0000208813000018010020FF
:100AD00010B5012000F0C0F910BD10B5102000F0D5
:100AE000BBF910BDF8B50C4605464035297D0129F6
:100AF0000DD00121297501688A68520709D5816DD9
:100B0000202211438165002028750120F8BD0220B4
:100B1000F8BD194B6268D8054710184E9A4215D097
:100B20008A6A23685B035B0B1A438A622168490364
:100B300005D5B1680143B1600A20FFF72FFD206899
:100B4000800315D5B0683843B06011E08A6A236825
:100B50005B035B0B9A438A622168490302D5B16843
:100B60008143B1602068800302D5B068B843B060AB
:100B700000202875F8BD000001100000002701408A
:100B80000068006C7047000070B50446002C06D069
:100B9000A06D254600264035002802D006E0012041
:100BA00070BDE6652E75204600F0D2F8A06DC00637
:100BB00003D420688168490706D5A06D1021084339
:100BC000A0652E75012070BDA16DFF2201329143F9
:100BD00002221143A16581685B4A8907890F0129B7
:100BE00002D10168C9072BD1032361689B07994291
:100BF00005D05B42994202D05B00994209D101695C
:100C000089008908016120680169636819430161ED
:100C10000CE0016989008908016190680F2189044D
:100C20008843906090686168084390602068C1685C
:100C300018239943C1602068C168A3681943C16043
:100C4000906801214906884390609068218F490689
:100C50000843906020688168C90004D4816801223B
:100C60001207114381602068C168384A1140C16091
:100C70002069E168022823D000200143206A226B0A
:100C80004003520010430143606B0143A06980039D
:100C90000143E069C00301432068C2681143C16099
:100CA000A06A0146FF39C23905D0E16A08432168CC
:100CB000CA681043C860606A0121012802D00BE0B5
:100CC0000420DAE7206A002823D0A06D20221043F8
:100CD000A065E06D0843E065206C012820D0206805
:100CE0000169C90703D00169490849000161206809
:100CF0004169C908C900416120684169E26B11433B
:100D00004161E665A06D80088000401CA065002060
:100D100070BD2068C26801231B041A43C260DBE770
:100D200020680269FF239B009A43026120680269E0
:100D3000636CE56C1A43A36C2B431A430261206871
:100D400002690A430261D2E7002701401902FEFF4F
:100D500000680449884204D10348416B421511439D
:100D600041637047002401400010024070B5044602
:100D7000002021688968490723D425464035297D0C
:100D800001291CD001212975E169012902D02046E1
:100D9000FFF71AFC002811D1A16D0B4A1140FF2268
:100DA00001321143A1650021E165297522681C21EA
:100DB000116021688A6804231A438A6070BD02208A
:100DC00070BD022070BD0000FEF1FFFF70B5002471
:100DD000024620325179022903D00421C163012443
:100DE0002EE001680B680E25AB430B6001680B68B1
:100DF0005B085B000B60134B0168994201D1012134
:100E000013E0104B1433994201D110210DE00D4B2A
:100E10002833994201D1891507E00A4B3C339942A6
:100E200001D1891401E001210904064B083B5960F6
:100E30000121517100211171816B002900D0884777
:100E4000204670BD08000240102802D1014901204F
:100E5000087070470D00002010B504494A6902422D
:100E600002D04861FFF7F0FF10BD00000004014010
:100E7000F0B5002289E001249440A4462340002BD1
:100E80007ED04C68022C01D0122C0CD1D408A400C6
:100E900027183D6A5407E40E0F26A640B5430E6995
:100EA000A6402E433E624C68012C05D0022C03D094
:100EB000112C01D0122C11D1856854000326A640B4
:100EC000B543CE68A6402E43866044686546AC4371
:100ED0000D79ED06ED0F95402543456007685400F8
:100EE0000325A540AF430E79B607B60FA6403E4393
:100EF0000660C668AE438D68A5403543C5604C6842
:100F0000E40041D5244C666B01252E4366639508A9
:100F1000224CAD002E19B5689407240F0F27A74067
:100F2000BD4305273F07B84201D100270AE01C4F07
:100F3000B84201D1012705E01A4FB84201D102277A
:100F400000E00627A7402F43B760174D2C689C434D
:100F50004E68F60300D51C432C606C689C434E68B9
:100F6000B60300D51C436C60AC689C434E68F60227
:100F700000D51C43AC60EC689C434E68B60200E0B0
:100F800002E000D51C43EC60521C0B681C46D440A8
:100F900000D070E7F0BD00000010024000000140EA
:100FA000000400500008005000040140002A01D055
:100FB0008161704781627047014800687047000096
:100FC0000000002070B50446002C05D02546603591
:100FD000687A002802D006E0012070BD0020287247
:100FE000204601F061F924206872206801684908F0
:100FF00049000160606A002802D0204601F008FD27
:10100000204601F003FE012818D02068416809221B
:10101000D20291434160206881682222914381601D
:1010200020688168082211438160206801680122DC
:1010300011430160204601F051FD70BD012070BDDB
:1010400002480168491C0160704700000000002050
:1010500010B506480168402211430160002000F0ED
:1010600007F800F019F8002010BD00000020024031
:1010700010B5044607487D21C9000068FFF756F8FF
:1010800001F01AF800222146501E00F02BF8002033
:1010900010BD00001000002010B50C48416B01226B
:1010A00011434163816B02041143816300221146A5
:1010B000501F00F017F800221146901E00F012F8A1
:1010C00000221146501E00F00DF810BD0010024025
:1010D000C106C90E01208840014908607047000020
:1010E00000E100E010B501F0DBFA10BD02494A68EA
:1010F00082434A60704700000070004002494A681D
:1011000002434A60704700000070004005480168D3
:101110000222114301600448016904221143016164
:1011200030BF70470070004000ED00E003480169E7
:101130000122520311430161704700004010024038
:10114000F8B501460020494D0123DB03464C474AD0
:101150004035022932D004294CD008296AD02029F0
:101160000AD12C69296903252D0429405E00B1426A
:1011700003D1A60501D51846F8BD01235B049942A9
:1011800003D1A30701D53A48F8BDA942FCD11168A3
:101190008903F9D5106803210905084001210905D3
:1011A000401A09D0401A05D0884201D13148F8BD13
:1011B0003148F8BD3148F8BD3148F8BDE9680C2622
:1011C0003140002902D0082903D007E000F0DAF905
:1011D000F8BD1268520701D52046F8BD042906D093
:1011E0000C29FAD129698905F7D51846F8BD00F010
:1011F000E9F9F8BDE9680326B6023140002908D0B4
:101200000127FF02B94207D11268520704D52046D0
:10121000F8BD00F0B7F9F8BD01229202914202D167
:1012200000F0D0F9F8BDB142FCD129698905F9D5A2
:101230001846F8BDE96803231B031940002908D0AC
:1012400001235B03994207D11268520704D5204657
:10125000F8BD00F097F9F8BD012212039142FAD1CE
:1012600000F0B0F9F8BD00000024F40000100240C6
:101270008890000020A1070000093D0040420F00B7
:1012800080841E00F8B504462078564D80067FD530
:10129000002654484038806BC00006D4514840387E
:1012A000816B02041143816301264F480168C9051F
:1012B00012D40168821511430160FFF77DFE0746D5
:1012C00006E0FFF779FEC01B642801D90320F8BDB2
:1012D00045480068C005F4D54248403800680321FD
:1012E000090508406268114081420AD09003800FCE
:1012F000032806D13B4840380068800301D501200F
:10130000F8BD2869032109040840002821D00A40BB
:1013100082421ED0207880061BD5286988432A691E
:101320000121C9040A432A612A698A432A61286182
:10133000C0050ED5FFF740FE074607E0FFF73CFE6D
:10134000C11B2A48814201D90320F8BD28698005C4
:10135000F4D560688103890F032908D1214B403BF4
:10136000196803221205914310400143196028694E
:10137000032261681204114008432861012E07D13D
:1013800018484038826B01048A4300E000E0826321
:101390002078800705D5E8680C218843A1680843B8
:1013A000E8602078400706D5E86803218902884371
:1013B000E1680843E8602078000706D5E868032163
:1013C0000903884321690843E8602078000606D5B0
:1013D000E86803218904884361690843E8600020C4
:1013E000F8BD00004010024000700040881300006B
:1013F000F8B504460E465B480068C007C00FB0420F
:101400000CD258480168490849003143016000681E
:10141000C007C00FB04201D00120F8BD2078524F64
:10142000800705D5F868F0218843A1680843F86073
:101430002078C00760D06068022808D003280BD04D
:1014400001280ED03968890510D40120F8BD39680B
:1014500089030BD40120F8BD3968890106D4012025
:10146000F8BD3968490701D40120F8BDF968890839
:1014700089000143F960FFF79FFD05466068022877
:101480000CD0032818D0012824D031E0FFF794FDB8
:10149000411B3648814201D90320F8BDF868000796
:1014A000800F0228F2D127E0FFF786FD411B2F486D
:1014B000814201D90320F8BDF8680007800F032896
:1014C000F2D119E0FFF778FD411B2848814201D98C
:1014D0000320F8BDF8680007800F0128F2D10BE067
:1014E000FFF76AFD411B2148814201D90320F8BD65
:1014F000F8680007800FF3D11A480168C907C90FBF
:10150000B1420BD9016849084900314301600068C4
:10151000C007C00FB04201D00120F8BD20784007BD
:1015200006D5F868072109028843E1680843F86096
:101530002078000707D5F8680721C9028843216988
:10154000C9000843F86000F03DF8F968084A090648
:10155000090F515CC840074908600020FFF788FD6B
:101560000020F8BD00200240001002408813000057
:10157000003A000810000020014800687047000091
:101580001000002000B5FFF7F7FF0449C968044ABE
:101590004905490F515CC84000BD000000100240E1
:1015A000193A000800B5FFF7E7FF0449C968044A83
:1015B0008904490F515CC84000BD00000010024082
:1015C000193A000810B51C4AD1680C230846184087
:1015D00004280BD0082810D00C2810D05068000424
:1015E000410F491C0120C003884010BD1068C0068F
:1015F00001D5124810BD124810BD124810BD880216
:10160000114B000F185C0902890F491CD368DB03DA
:1016100004D50C4A5043FEF789FD10BD1268D2066E
:1016200004D5064A5043FEF781FD10BD044A5043DD
:10163000FEF77CFD10BD00000010024000093D00D7
:101640000024F40000127A00103A0008F8B50446AD
:101650002078FF4EC00753D0F0680007800F0228A3
:1016600007D0F0680007800F03280AD1F068C00394
:1016700007D53068800343D56068002840D1012039
:10168000F8BD012160680904884203D1306808432D
:10169000306015E0052301221B049204984206D114
:1016A00030681043306030680843306008E03068CC
:1016B0008843306030680840009030689043306064
:1016C000606800280ED0FFF777FC054606E0FFF7BC
:1016D00073FC401B642801D90320F8BD30688003E7
:1016E000F5D50DE0FFF768FC054606E0FFF764FC62
:1016F000401B642801D90320F8BD30688003F5D46D
:10170000207880074CD5F0681F270007800F3F0224
:10171000012807D0F0680007800F032811D1F06876
:10172000C0030ED43068400704D5E068012801D01A
:101730000120F8BD70682169B84309020843706050
:101740002EE0E068002819D0316809229143014356
:101750003160FFF731FC054606E0FFF72DFC401B2A
:10176000022801D90320F8BD30684007F5D570681C
:101770002169B84309020843706011E030684008ED
:1017800040003060FFF718FC054606E0FFF714FC48
:10179000401B022801D90320F8BD30684007F5D46A
:1017A0002078C0067ED5F068AA4F0007800F0BD0C6
:1017B000A069002863D03068FF2101310843306000
:1017C000FFF7FAFB05464AE03068800502D5A069BC
:1017D00000280AD0206A71683940884214D900F084
:1017E000B7FF002803D00120F8BD0120F8BD7068C4
:1017F000216AB843084370607068217F0002000AC4
:1018000009060843706011E07168B94301437160D3
:101810007068217F0002000A090608437060206A90
:1018200000F096FF002801D00120F8BD206A410B8E
:10183000491C0120C0038840F16809060A0F864947
:10184000895CC840854908600020FFF711FC29E049
:10185000FFF7B2FB401B022801D90320F8BD306816
:101860008005F5D57068216AB843084370607068D8
:10187000217F0002000A09060843706012E0316807
:10188000FF20013081433160FFF796FB054606E0FB
:10189000FFF792FB401B022801D90320F8BD3068F6
:1018A0008005F5D420786E4D000727D560690028A3
:1018B00012D02869012108432861FFF77DFB074604
:1018C00006E0FFF779FBC01B022801D90320F8BD11
:1018D00028698007F5D511E0286940084000286193
:1018E000FFF76AFB074606E0FFF766FBC01B02280E
:1018F00001D90320F8BD28698007F5D42078400776
:1019000070D500200090B06BC00006D4B06B0121F0
:1019100009070843B0630120009052480168C905D7
:1019200012D40168821511430160FFF745FB074699
:1019300006E0FFF741FBC01B642801D90320F8BD76
:1019400048480068C005F4D5FF20A16801308142F5
:1019500003D12969014329611BE001229202002978
:101960000AD005231B0299420DD12969114329612F
:101970002969014329610CE02969814329612869AA
:101980009043286105E029698143296128699043D2
:101990002861A06800280FD0FFF70EFB074607E07C
:1019A000FFF70AFBC11B3048814201D90320F8BD73
:1019B00028698005F4D50EE0FFF7FEFA074607E038
:1019C000FFF7FAFAC11B2848814201D90320F8BD6C
:1019D00028698005F4D40098012803D1B16B000771
:1019E0008143B163606A002855D0F1680907890F07
:1019F000032952D001273F06022806D03068B84399
:101A00003060FFF7D9FA044642E03068B8433060EE
:101A1000FFF7D2FA054606E0FFF7CEFA401B022890
:101A200001D90320F8BD30688001F5D4E16AA06ACD
:101A3000F2680843216BFD231B049A4311430843BA
:101A4000F060306838433060FFF7B6FA044614E0BF
:101A50000010024000E00000003A000810000020E2
:101A6000401002400070004088130000FFF7A4FA05
:101A7000001B022801D90320F8BD30688001F5D58C
:101A800009E0FFF799FA001B022801D90320F8BDED
:101A900030688001F5D40020F8BD0120F8BDF8B50C
:101AA0000446254620352878012817D001272F70B5
:101AB000022068702168CA20486221685320486269
:101AC00020688168BA0291438160206881681201B0
:101AD00091438160FFF770FA064611E00220F8BDDD
:101AE000FFF76AFA811B7D20C000814208D9216876
:101AF000FF20486203206870002028700320F8BD92
:101B00002068C0684007EBD52168FF2048626F70ED
:101B100000202870F8BD0000F7B5044625462035A2
:101B20002878012813D001202870022068702168CD
:101B3000CA204862216853204862206880680027D4
:101B40004005002817DAFFF737FA06460FE00220B3
:101B5000FEBDFFF731FA811B7D20C000814206D90E
:101B60002168FF204862032068702F70FEBD206846
:101B7000C0684007EDD420688268012189028A4349
:101B800082602068C16880221140204A8918C160A3
:101B9000FFF712FA06460DE0FFF70EFA811B7D20D3
:101BA000C000814206D92168FF2048620320687086
:101BB0002F70FEBD2068C0684007EDD521680198F0
:101BC000486120688168C908C9008160206881680F
:101BD000029A114381600E480168012212051143E7
:101BE000016081681143816020688168921111430E
:101BF0008160206881681211114381602168FF2093
:101C00004862012068702F700020FEBD7FFBFFFF3F
:101C10000004014070B50446002C05D0254620354F
:101C20006878002802D006E0012070BD00202870EE
:101C3000204600F045F8022068702168CA204862FA
:101C4000216853204862204600F0BAFDFF21002899
:101C500005D02068416204206870012070BD2068B2
:101C60008268164B1A408260206882686368A669A1
:101C70001A43236933431A4382602268E068106183
:101C80002068026923891B041A4302612068C26824
:101C900080239A43C2602068C26C92089200C2649A
:101CA000E269606902432068C36C1A43C264206819
:101CB000416201206870002070BD0000BFFF8FFFEF
:101CC00000680549884205D104480169012292044F
:101CD000114301617047000000280040401002409D
:101CE00070B50446002C06D025464035687C002699
:101CF000002802D005E0012070BD2E74204600F0BF
:101D00002DF8022068742068016840229143016028
:101D1000A168606822690843E1681143084361696A
:101D200001220843A169520211400843E1690843B6
:101D3000216A0843A16A084321680860A069042158
:101D4000000C0840616A0843216848602168E06A25
:101D50000861666501206874002070BD00B585B01B
:101D600000680C49884212D10B48416B8214114320
:101D70004163E020009002200190002002900321A6
:101D800003910490052069460007FFF771F805B03C
:101D900000BD00000030014000100240F8B50446CC
:101DA00000200090254640356E7C012E04D06E7CCC
:101DB000222E01D00220F8BD00290CD0002A0AD022
:101DC000002B08D02E7C012E07D001262E746E7CAD
:101DD000012E04D005E00120F8BD0220F8BD322616
:101DE0006E7400206065A263A387E3872163A386E6
:101DF000E386A064E0640126A06A7603B04207D1BE
:101E000020680168B14301602068016831430160C6
:101E100020680168490603D401684022114301602B
:101E20000122D202FF21E0680531570090427ED1A5
:101E30006068002804D088420CD1E08E012809D1C6
:101E4000206B21680088C860206B801C2063E08EB6
:101E5000401EE086E08E00284DD1A06AB04203D13A
:101E60002068016839430160002201212046069B59
:101E700000F0D0FC002801D00320F8BD2068C06825
:101E8000A16B0880A06B801CA063E08F401EE087E0
:101E9000C3E0002202212046069B00F0BBFC002884
:101EA00001D00320F8BD206B21680088C860206B3A
:101EB000801C2063E08E401EE086E08E002806D164
:101EC000A06AB04203D12068016839430160002252
:101ED00001212046069B00F09DFC002801D0032034
:101EE000F8BD2068C068A16B0880A06B801CA0634F
:101EF000E08F401EE087E08E0028CAD1606800288D
:101F000014D1002201212046069B00F083FC00280A
:101F100002D00320F8BD0AE02068C068A16B0880E9
:101F2000A06B801CA063E08F401EE08775E06068B6
:101F3000002804D088420BD1E08E012808D1206B04
:101F4000411C216321680078C860E08E401EE08655
:101F5000E08E002848D1A06AB04203D12068016811
:101F600039430160002201212046069B00F052FC0B
:101F7000002801D00320CDE72068C068A16B08705D
:101F8000E08F401EE08748E0002202212046069BA9
:101F900000F040FC002801D00320BBE7206B411C6F
:101FA000216321680078C860E08E401EE086E08EE4
:101FB000002806D1A06AB04203D1206801683943E5
:101FC0000160002201212046069B00F023FC00282E
:101FD00001D003209EE72068C168A06B421CA26369
:101FE0000170E08F401EE087E08E0028CCD1606851
:101FF000002812D1002201212046069B00F00AFC95
:10200000002801D0032085E72068C168A06B421C2E
:10201000A2630170E08F401EE087A06A0227B042F1
:1020200011D1002201212046069B00F0F3FB00287D
:1020300004D0606D3843606503206BE72068C0689A
:10204000009069460888012280212046069B00F006
:10205000E1FB002805D0606D202108436065032066
:1020600058E701206874A06AB04212D120688168E4
:10207000C943C9060DD4616D394361650168B14337
:10208000016020680168314301600020287401204C
:1020900040E7002028743DE704220549042803D0C6
:1020A00008699043086170470869104308617047E8
:1020B00000E000E07047000010B50949401E88426A
:1020C00001D9012010BD074C60610321081F00F0F9
:1020D000E7FA0020A06107202061002010BD000069
:1020E000FFFFFF0000E000E010B5FFF7E3FF10BDC9
:1020F00070477047F8B504462368D8691968050722
:102100002D0F002D07D1820605D58A0603D520465E
:1021100000F03CFDF8BD9A682027002D69D0D50756
:10212000ED0FFF2621360E402E4362D0C60706D0A3
:10213000CE0504D501261E62E36E3343E3668307B2
:1021400008D5D30706D0266802233362E36E04263F
:102150003343E366430708D5D20706D02368042239
:102160001A62E26E02231A43E266020709D50A46A2
:102170003A402A4305D0236808221A62E36E1343CB
:10218000E366E26E002AC5D0800604D5880602D533
:10219000204600F0FBFCE06E000703D42068806856
:1021A000400620D5204600F0D5FC2068816849060D
:1021B00015D58168402291438160606E00280AD065
:1021C0001B498163606EFEF701FE0028A2D0606E9D
:1021D000816B8847F8BD2046FFF78BFFF8BD20468E
:1021E000FFF787FFF8BD2046FFF783FF0020E0667A
:1021F000F8BDC5020CD552020AD5012000051862AF
:1022000020466030477287722046FFF771FFF8BDA5
:10221000020605D50A0603D5204600F041FEF8BDAA
:102220004006FCD54806FAD5204600F0A2FCF8BDD1
:10223000412B000870B50446002C05D025466035BA
:10224000687A002802D006E0012070BD00202872C4
:10225000204600F029F824206872206801684908A7
:1022600049000160606A002802D0204600F0D0FBDF
:10227000204600F0CBFC012813D0206841680922D9
:10228000D20291434160206881682A229143816093
:1022900020680168012211430160204600F01EFC05
:1022A00070BD012070BD000030B585B001681A4DC9
:1022B00005201A4A012303240007A94218D1916B73
:1022C0009D04294391630A21009102210191029307
:1022D0000394062104916946FEF7CAFD00221146C7
:1022E0001D20FEF7FFFE1D20FEF7F2FE05B030BDFB
:1022F0000B4DA942FAD1916B01256D0429439163DD
:1023000004210091122201920293039404916946E0
:10231000FEF7AEFDEAE70000004800400010024072
:10232000004400407047FFB583B005460C462F4679
:102330006037787A202802D0022007B0F0BD002C48
:102340000BD00598002808D00120A968000381421D
:1023500009D12869002802D005E00120EDE7E00757
:1023600001D00120E9E7387A01280FD00120387226
:102370000020E86621207872FEF71EFE02902E46AD
:10238000403605983082059870821CE00220D4E720
:10239000708A401E70820698009000228021284694
:1023A000029B00F0B1FD002801D00320C5E7012009
:1023B000A9680003814202D12869002812D0207840
:1023C0002968641C8862708A0028E1D10698009010
:1023D000002240212846029B00F096FD002808D0EC
:1023E0000320AAE72088A41CC0052968C00D8862C4
:1023F000E9E720207872002038729EE770470000DD
:1024000010B508480068436A07490878421C0A70FA
:1024100006490B540649012008700248FFF76AFE7E
:1024200010BD000018010020040000201C00002046
:10243000050000201CB51A481849016000210164FC
:102440000122920742608160C16301220261C16082
:1024500002624162C162FF22C232826201630422CF
:102460004261416381618163C161FEF78DFB002898
:1024700003D04B210BA000F078FD0E480090012006
:102480000003019069460648FEF72CFB002803D0A4
:10249000542104A000F069FD1CBD0000002401408F
:1024A000080200202E2E2F5372632F6164632E6367
:1024B0000000000000000244F0B587B02748C26A5F
:1024C00004210A43C262C26A0A400192C16A01251C
:1024D0002943C162C16A29400191C16A0226314380
:1024E000C162C06A30400190002202211C48FEF700
:1024F0005DFD6F020520002239460007FEF756FDFC
:10250000112002901748039000240494052002A98A
:102510000007FEF7ADFC029603950494059402A90A
:102520000F48FEF7A5FC0297039504940594052037
:1025300002A90007FEF79CFC002211460520FEF7C9
:10254000D1FD0520FEF7C4FD002211460720FEF74D
:10255000C9FD0720FEF7BCFD07B0F0BD001002402A
:10256000000400500000111010B50D480B49016027
:102570004B21C901416000218160C16001610C22D1
:102580004261816101624162FFF754FE002803D07D
:10259000442104A000F0E9FC10BD00000048004008
:1025A000180100202E2E2F5372632F7573617274E1
:1025B0002E63000010B50C480A49016000214160FB
:1025C0007F228260FF22C260016141618161C1613D
:1025D000FFF720FB002803D0452104A000F0C5FC34
:1025E00010BD0000002800409C0000202E2E2F531C
:1025F00072632F7274632E630000000010B51048E0
:102600000E490160FF210531416000218160C160F8
:10261000016141610122520282611022C2610162A4
:10262000416281620721C162FFF75AFB002803D093
:10263000452104A000F099FC10BD000000300140CD
:10264000C00000202E2E2F5372632F7370692E63EB
:102650000000000010B50D480B4901604B21C90175
:10266000416000218160C16001610C224261816191
:10267000C16101624162FEF7A5FC002803D0592127
:1026800003A000F072FC10BD00440040880100204F
:102690002E2E2F5372632F75736172742E63000098
:1026A0008307FF22DB0E9A408907090E9940002814
:1026B0000BDA0007000F0838830808489B00181839
:1026C000C36993430B43C3617047830804489B006D
:1026D0001818036893430B430360704700ED00E054
:1026E00000E400E010B57D2212010DA10EA0FEF75E
:1026F000A5F9104C00280BD1642000F000FE00204A
:102700000D490A18127A2254401CC0B20F28F8D37F
:102710000020E073074909A000F028FC10BD00006C
:102720002B4347534E3A000041542B4347534E3DF1
:1027300031000000F80100201C000020494D4549EF
:10274000206E756D626572203D2025732E0A000093
:1027500070B50021164BDA681206120F18D19A6B69
:10276000154CD500134A02D51268224009E09E6B31
:1027700001252D072E439E63126822409E6BAE43B7
:102780009E63A24204D103229203904200D1012110
:102790000A480268520852000A4302600068C007F3
:1027A000C00F884201D0012070BD002070BD000024
:1027B000001002400070004000180000002002409D
:1027C00070B505462868C168490613D40021C9437D
:1027D000C160FEF7F1FB04467D26F60006E0FEF739
:1027E000EBFB001BB04201D9032070BD2868C06814
:1027F0004006F4D5002070BD10B50448FFF74FF92E
:102800000348016804221143016010BD9C000020B0
:1028100000700040FFB581B0044616461D46FEF725
:10282000CBFB0746314626464036002926D050E0ED
:10283000681C23D0002D04D0FEF7BEFBC01BA842AD
:102840001CD920684268E0218A4342602068016800
:10285000402291430160A06AD101884207D12068DB
:1028600002688A430260206802680A43026001200D
:10287000707400203074032005B0F0BD20688168BA
:1028800002988843D4D129E0681C22D0002D04D0BE
:10289000FEF792FBC01BA8421BD920684268E021CA
:1028A0008A4342602068026840218A430260A06A2D
:1028B000C901884207D1206802688A430260206803
:1028C00002680A4302600120707400203074032003
:1028D000D2E72068816802988843D5D00020CBE7F2
:1028E00010B5FEF7ADFBFFF7FFFB10BD10B598B0BC
:1028F0002C490A680320C0028243CB14D2180A6014
:1029000029490A6982430A6106200B9088150D90B7
:1029100001200E9010200F90022014900024159496
:102920001694400517900BA8FEF790FE002803D0E0
:10293000BA211EA000F019FB0F200690032007907B
:10294000089409940A94012106A8FEF751FD002875
:1029500003D0C82115A000F008FB262000900294A7
:1029600003940120000401906846FEF78BFC0028C8
:1029700003D0D2210DA000F0F8FAFEF7D7FBFEF746
:10298000FBFD7D21C900FDF7D1FBFFF795FB04207E
:10299000FFF782FB00221146501EFEF7A3FB18B082
:1029A00010BD000000700040401002402E2E2F533A
:1029B00072632F6D61696E2E63000000104801681C
:1029C000821511430160C1680E4A1140C16001685F
:1029D0000D4A114001608168490849008160016821
:1029E0000122920491430160C168FD2212049143C7
:1029F000C160002101610549C00388607047000083
:102A0000001002400C40FF88F6FFF6FE00ED00E0EB
:102A100010B5818CC90707D001684A6801235B049F
:102A20009A43836A1A434A60818C890707D50168F3
:102A30004A6801231B049A43C36A1A434A60818C83
:102A4000490707D501684A6801239B049A43036B31
:102A50001A434A60818C090707D501684A68012337
:102A6000DB039A43436B1A434A60818CC90607D53E
:102A700001688A6801231B039A43836B1A438A60A7
:102A8000818C890607D501688A6801235B039A4314
:102A9000C36B1A438A60818C490612D501684B6862
:102AA00001221205046C934323434B60016C914255
:102AB00007D101684A6803235B059A43436C1A43B4
:102AC0004A60818C090607D501684A680123DB0446
:102AD000806C9A4302434A6010BD0000F8B504467A
:102AE0000025E566FEF768FA074620680068134E81
:102AF00000070BD501213B460022490520460096E0
:102B000000F002FA002801D00320F8BD2068006818
:102B100040070BD501213B4600228905204600963F
:102B200000F0F2F9002801D00320F8BD2020603425
:102B30006072A07225720020F8BD0000FFFFFF0147
:102B400010B5806A0022014640314A834A82FFF76D
:102B5000D0FA10BD01680A68FF2321339A430A6046
:102B6000016860308A68520852008A6020218172B0
:102B7000704710B501680A6840239A430A60202212
:102B800069210A54FFF73AFC002010BD70B50246D7
:102B90004032938B014660318D7A0C460168222DBC
:102BA00005D08869082210438861022070BD496AF7
:102BB00089B2012685683603B54202D10569002D28
:102BC0000CD01940436D5D1C45651970518B491E31
:102BD0000904090C518308D0002070BD456D1940CF
:102BE0002980416D891C4165F0E701680A68FF236F
:102BF00021339A430A6001688A68520852008A6049
:102C00002021A172FFF78EFB002070BDFEB50446A7
:102C100010270026002520682269A168E369114376
:102C200062691A4311430268944B1A400A430260D6
:102C300020684168032212039143E2681143416016
:102C4000A0698F4A2168914201D0226A10438A68A4
:102C50000B231B029A4302438A608A4A20688A49EE
:102C6000904212D1C8680C21084006D0042808D030
:102C7000082804D00C2818D105E0002715E0022709
:102C800013E0042711E008270FE07D4A90420CD1A1
:102C9000C86803218902084029D01115401A2AD09A
:102CA000401A26D0884200D108270220FEF748FAB1
:102CB0000090734B744922684039D81301929A42AC
:102CC00040D10023002F18D0022F1AD0042F1FD07C
:102CD000082F21D00125002B08D062685000101861
:102CE000984202D81003984218D20125C3E0002769
:102CF000DBE70227D9E70427D7E7FEF743FC0346C3
:102D0000E9E70868C00601D5604BE4E7604BE2E7FD
:102D1000FEF758FC0346DEE70346DCE7190E1B020C
:102D200050080026181871413346FDF715FA0321A3
:102D30000902584A411A914202D82168C8609AE0B3
:102D4000012598E0E26982424AD13B0000F035F962
:102D500009060F193F2C3F3F3F363F00009861683E
:102D600040004A088018FDF7E1F986B230E0FEF72E
:102D700019FC616840004A088018FDF7D7F986B24F
:102D800026E00868C00607D56168434A48088018ED
:102D9000FDF7CCF986B21BE06168404A480880180C
:102DA000FDF7C4F986B213E0FEF70CFC6168400041
:102DB0004A088018FDF7BAF986B209E06168012275
:102DC000480812048018FDF7B1F986B200E0012529
:102DD000310909013007400F08432168C8604AE003
:102DE0003B0000F0EAF80906111C47334747473E0D
:102DF0004700FEF7C7FB61684A088018FDF796F99F
:102E0000216880B2C86036E0FEF7CCFB61684A08F2
:102E10008018FDF78BF9216880B2C8602BE0086844
:102E2000C00609D5616819484A081018FDF77EF9EF
:102E300081B20198C1601EE0616815484A08101807
:102E4000FDF774F981B20198C16014E0FEF7BAFB96
:102E500061684A088018FDF769F9216880B2C86086
:102E600009E061684A081018FDF760F981B201981D
:102E7000C16000E001252846FEBD0000F369FFEFB8
:102E800000480040004400404010024000093D005E
:102E90000024F400FFFC0F0000127A000048E80153
:102EA0006921095C212901D0022070470146403187
:102EB0004A8A002A12D0012382681B039A4202D157
:102EC0000269002A16D0C26C531CC36400681278D1
:102ED0008262488A401E48820020704701680A6862
:102EE00080239A430A600068016840221143016010
:102EF00000207047C26C03681288D205D20D9A6216
:102F0000C26C921CC264E4E7FFB581B005460E4670
:102F100017460A9C1DE0601C1BD0002C05D0FEF754
:102F20004BF80499401AA04213D928680168FF227F
:102F3000A1329143016028686035816849084900E1
:102F4000816020206872A87200202872032005B0DA
:102F5000F0BD2868C1693046884304D00020B842DB
:102F6000D9D00020F3E70120F9E7FEE70FB410B550
:102F700003A9044B044A029800F042F810BC08BCB4
:102F800004B0184719330008140000202021020C57
:102F900001D010211046020A01D01046083902095A
:102FA00001D01046091F820801D01046891E420830
:102FB00001D0881E7047081A704730B47446641EEA
:102FC0002578641CAB4200D21D46635D5B00E318AC
:102FD00030BC184702E008C8121F08C1002AFAD105
:102FE00070477047002001E001C1121F002AFBD189
:102FF0007047000001490860704700001800002079
:10300000FFB58FB00F460446002606E025280AD0FB
:10301000129A11999047641C761C20780028F5D1EB
:10302000304613B0F0BD00250121A14A009500E013
:103030000543641C23780846203B98401042F7D192
:1030400020782E2815D1042005436078641C2A2896
:103050000AD101CF641C00900BE000990A22514371
:1030600030394018641C0090207801463039092915
:10307000F3D920786C280ED004DC4C2813D06A28B1
:1030800012D104E074280ED07A280DD10BE0012073
:103090004005054307E00121090562780D4382429E
:1030A00001D16D18641C641C2078864669284AD0BA
:1030B00008DC0028B4D058286DD0632810D06428CC
:1030C00008D140E070286BD0732812D0752860D0EA
:1030D000782860D0129A704611999047761CE5E0E6
:1030E0003878694608720020487202A801900120D1
:1030F00003E0386801900020C0433F1D69070CD5EC
:10310000002500E06D1C00998D420FDA8542F9DB45
:103110000199495D0029F5D108E0002500E06D1C0A
:103120008542FCDB0199495D0029F8D1761907E059
:10313000019801990078491C0191129A11999047C0
:103140006D1EF5D2B2E00A20029000216802400F05
:10315000039102280CD001CFC117844600290DDA53
:103160006246084652420021814194462D2008E0E3
:10317000FF1DFF08FF0003CF8446EFE7280504D5B5
:103180002B206A46107401203CE0E8073AD020204A
:10319000F7E70A2000E0102000210391029007E0E9
:1031A0001020029000210420054308200391009084
:1031B0006802400F022810D001CF00218446002071
:1031C0000D9028071FD5704670280CD0029A102049
:1031D000039B42401A430CD015E0FF1DFF08FF007F
:1031E00003CF8446EBE740206A46107401200D901F
:1031F0000CE06046084306D030206A4610747046E2
:10320000507402200D907046582804D029A00190D7
:103210000DA80E900DE02CA0F9E76046039B029AE2
:10322000FCF79AFF019B84469B5C0E9A521E0E92FD
:10323000137060460843F0D10E9805A9081A203093
:103240000190680701D5009801E0012000900199E4
:10325000884203DD01460198081A00E0002000259D
:10326000009006E004A8129A405D119990476D1CE9
:10327000761C0D988542F5DB04E0129A30201199F6
:103280009047761C0099481E00900029F5DC08E064
:103290000E980E990078491C0E91129A1199904738
:1032A000761C0199481E01900029F1DC641CB4E6EB
:1032B000092801003031323334353637383961620C
:1032C00063646566000000003031323334353637D0
:1032D00038394142434445460000000002090007D6
:1032E000000F3032D2B23030392A01D9D21DD2B2D9
:1032F000392801D9C01DC0B20A7048707047002239
:103300007D23DB0004E00021491C9942FCDB521CB8
:103310008242F8DB7047000038B504460094044B45
:10332000012269460348FEF7FEFF204638BD000033
:103330008813000088010020FDF78AFEFFF7D6FA07
:10334000FFF7BAF8FFF710F9FFF734F9FFF756F96E
:10335000FFF770F8FFF77EF91BA0FFF707FE1E4886
:10336000008B1E4CA0801E48FDF700FD1D48006824
:10337000C068400504D51C49012008701B4908702D
:10338000FDF7B4F900F080F9FFF736FA1848006845
:1033900001682022114301600020607020707D25AB
:1033A000ED000F48FDF7ECFB81B26180A28850016F
:1033B0001018FCF7BBFE801EE080FDF7D1F928460F
:1033C000FFF79DFFEDE7000068656C6C6F2C776F71
:1033D000726C642E0A0000006000F81F04000020D8
:1033E000080200209C0000200C0000200D0000209E
:1033F00018010020F8B50026002400251E4F0A20E1
:10340000387030E0FF222D321CA11FA0FDF716FB03
:10341000002802D0002C02D00BE001262AE0FF2277
:103420002D321CA11EA0FDF709FB002801D10124AB
:103430000226002C0BD0002D09D1FF222D321BA11A
:103440001BA0FDF7FBFA002801D1012501263878E1
:10345000401E3870C820FFF752FFFF222D3217A1FF
:1034600017A0FDF7EBFA002C01D0002D02D138781F
:103470000028C7D13046F8BD0E00002041542B4330
:1034800053434F4E3D31000041542B4353434F4E65
:103490003F0000002B43474154543A3100000000E4
:1034A00041542B43474154543F0000003100000079
:1034B00041542B43455245473F0000004F4B00000D
:1034C00041542B4353510000F3B5A1B00D4678226F
:1034D000494901A8FCF770FE00240094FFF702F9A7
:1034E0000023464F1FAE58008119F818C07AFFF725
:1034F000F5FE5B1CDBB2042BF5D3002001A90B18F1
:10350000325C20339A76401CC0B20828F7D364217D
:103510002198FCF70BFE30300E46C0B26946FFF72B
:10352000DDFE694601A8FCF76BFE30460A21FCF778
:10353000FDFD30306946FFF7D1FE694601A8FCF772
:103540005FFE0A212198FCF7F1FD084630306946FC
:10355000FFF7C4FE694601A8FCF752FE56206946F3
:10356000FFF7BCFE694601A8FCF74AFE0A2128467F
:10357000FCF7DCFD30300D46C0B26946FFF7AEFE09
:10358000694601A8FCF73CFE284630306946FFF743
:10359000A5FE694601A8FCF733FE18A80473FF25B1
:1035A0002D352A4616A117A0FDF748FA1C4C002815
:1035B00001D105202070AF26B60006E0002801D01A
:1035C000401E20703046FFF79AFEC82215A101A8C0
:1035D000FDF734FA002802D020780028EED12078B8
:1035E000002802D011A0FFF7C1FC2A4604A111A0B7
:1035F000FDF724FA23B0F0BD88390008F801002057
:103600004F4B000041542B4E534F43523D444752C1
:10361000414D2C31372C333030352C310000000037
:103620000E0000202B4E534F4E4D490073656E74B3
:103630002E0A000041542B4E534F434C3D300000A6
:10364000F8B506460C46FCF745FF051E0F4600D0B0
:103650000120014349000B484908411AC90F0DD008
:10366000002E01D0012100E000210C436100490837
:10367000401AC00F02D10120FFF7BCFC2846394692
:10368000F8BD00000000F07F10B5FF240134204693
:10369000FDF72CFD04490A68042002430A60204615
:1036A000FDF72CFD10BD0000007000400000000080
:1036B000000000000000F03F0331E097C0FEEF3F44
:1036C0008865BC7802FBEF3F47A134EDC5F4EF3FBE
:1036D000364A4D710BECEF3FA0790BB4D3E0EF3FCE
:1036E0004FCAC5941FD3EF3F678AD325F0C2EF3F7F
:1036F000291954A946B0EF3F2F896794249BEF3FC7
:103700008F6E7F8C8B83EF3FFB2FFB687D69EF3FD4
:1037100061969E32FC4CEF3F6C0B6C210A2EEF3F02
:1037200062CB539FA90CEF3F65042147DDE8EE3FD4
:10373000B6F566E3A7C2EE3FB2EF806E0C9AEE3F9D
:1037400034C41B130E6FEE3F94C6352CB041EE3FD0
:10375000C9996F42F611EE3F4A62BB0EE4DFED3FBE
:10376000A855D3797DABED3F9A37EE97C674ED3F00
:10377000729E30AFC33BED3FE6CD28307900ED3F80
:10378000C91A2DBBEBC2EC3FD248231D2083EC3F6E
:10379000998A804F1B41EC3F3911C077E2FCEB3F27
:1037A0000FED75E87AB6EB3FDCDB9F1EEA6DEB3F71
:1037B0008529B8C23523EB3F14B0B5A863D6EA3FDC
:1037C0003916E6CD7987EA3F48CFED587E36EA3F95
:1037D0005E6C649B77E3E93F1CFA9B0E6C8EE93FBD
:1037E0000F712A546237E93FECD4D63461DEE83FEA
:1037F0000EF6BEA26F83E83F1F7E82B49426E83F98
:10380000F121F2A7D7C7E73FC2C0FCE03F67E73F1F
:10381000FEC176E6D404E73F3E9865669EA0E63F8B
:10382000885DA130A43AE63F33058439EED2E53F06
:10383000A4B9B0968469E53FD39D39816FFEE43F1A
:10384000072B6752B791E43F3EA141846423E43FD4
:10385000240791B17FB3E33FFDD840941142E33F89
:10386000E2274D0423CFE23F220A4CF8BC5AE23F44
:10387000244AD183E8E4E13F65666ED7AE6DE13F4F
:10388000FFCF8C3E19F5E03FC33B0A21317BE03F7F
:10389000000000000000E03F7FEAABED1E07DF3FC5
:1038A000112B5F74D20BDE3FC5758C2B2E0EDD3FC6
:1038B0002400F8DA450EDC3FFBDE7E772D0CDB3F83
:1038C000DA44F120F907DA3F16821222BD01D93F0E
:1038D0004C4373EE8DF9D73FE2CF4B2080EFD63FBC
:1038E0000F873074A8E3D53F512483CF1BD6D43F34
:1038F000512483CF1BD6D43F720CD0CF37B6D23FE2
:10390000B3DB64DD0AA4D13F4FD876C17D90D03FB0
:10391000DFCEC0F34BF7CE3FC3BB103632CBCC3F2C
:103920000E89A6ACD99CCA3F5760A7DC6D6CC83F16
:103930005760A7DC6D6CC83F773592670B06C43FB4
:103940006392A3966CD0C13FF3EB914AD432BF3F50
:10395000AB0D169A60C2BA3FEBF4D7B9D64FB63F5B
:103960007BA7836E8FDBB13FD68BD946C7CBAA3FEF
:10397000381186CC58DEA13FA7AB06240BDF913F60
:10398000000000000000000041542B4E534F5354E0
:103990003D302C3132322E3131322E3234352E330D
:1039A000342C353638332C33352C343230333030F8
:1039B0003131366634336234366437313734373434
:1039C000303431313131313131313439363333649E
:1039D000363336663631373033353336333766660D
:1039E00034613434000000000000000000000000DA
:1039F00000000000000000000000000000000000C7
:103A0000000000000000000001020304060708098E
:103A1000030406080C101820300000000001020307
:103A200004000000443A0008000000201C000000D0
:103A3000D42F0008603A00081C0000204C0600004B
:103A4000E42F00080000000000000000000000005B
:103A500000000A0080841E0000000000000000003A
:04000005080000C12E
:00000001FF
